{
  "contractName": "PredictionMarket2",
  "abi": [
    {
      "inputs": [
        {
          "internalType": "address",
          "name": "_oracle",
          "type": "address"
        }
      ],
      "stateMutability": "nonpayable",
      "type": "constructor"
    },
    {
      "inputs": [
        {
          "internalType": "enum PredictionMarket2.Side",
          "name": "",
          "type": "uint8"
        }
      ],
      "name": "bets",
      "outputs": [
        {
          "internalType": "uint256",
          "name": "",
          "type": "uint256"
        }
      ],
      "stateMutability": "view",
      "type": "function",
      "constant": true
    },
    {
      "inputs": [],
      "name": "betsPaused",
      "outputs": [
        {
          "internalType": "bool",
          "name": "",
          "type": "bool"
        }
      ],
      "stateMutability": "view",
      "type": "function",
      "constant": true
    },
    {
      "inputs": [
        {
          "internalType": "address",
          "name": "",
          "type": "address"
        },
        {
          "internalType": "enum PredictionMarket2.Side",
          "name": "",
          "type": "uint8"
        }
      ],
      "name": "betsPerGambler",
      "outputs": [
        {
          "internalType": "uint256",
          "name": "",
          "type": "uint256"
        }
      ],
      "stateMutability": "view",
      "type": "function",
      "constant": true
    },
    {
      "inputs": [],
      "name": "matchFinished",
      "outputs": [
        {
          "internalType": "bool",
          "name": "",
          "type": "bool"
        }
      ],
      "stateMutability": "view",
      "type": "function",
      "constant": true
    },
    {
      "inputs": [],
      "name": "oracle",
      "outputs": [
        {
          "internalType": "address",
          "name": "",
          "type": "address"
        }
      ],
      "stateMutability": "view",
      "type": "function",
      "constant": true
    },
    {
      "inputs": [],
      "name": "result",
      "outputs": [
        {
          "internalType": "enum PredictionMarket2.Side",
          "name": "winner",
          "type": "uint8"
        },
        {
          "internalType": "enum PredictionMarket2.Side",
          "name": "loser",
          "type": "uint8"
        }
      ],
      "stateMutability": "view",
      "type": "function",
      "constant": true
    },
    {
      "inputs": [
        {
          "internalType": "enum PredictionMarket2.Side",
          "name": "_side",
          "type": "uint8"
        }
      ],
      "name": "placeBet",
      "outputs": [],
      "stateMutability": "payable",
      "type": "function",
      "payable": true
    },
    {
      "inputs": [],
      "name": "withdrawGain",
      "outputs": [],
      "stateMutability": "nonpayable",
      "type": "function"
    },
    {
      "inputs": [
        {
          "internalType": "bool",
          "name": "_pause",
          "type": "bool"
        }
      ],
      "name": "pauseBets",
      "outputs": [],
      "stateMutability": "nonpayable",
      "type": "function"
    },
    {
      "inputs": [
        {
          "internalType": "enum PredictionMarket2.Side",
          "name": "_winner",
          "type": "uint8"
        },
        {
          "internalType": "enum PredictionMarket2.Side",
          "name": "_loser",
          "type": "uint8"
        }
      ],
      "name": "reportResult",
      "outputs": [],
      "stateMutability": "nonpayable",
      "type": "function"
    }
  ],
  "bytecode": "0x608060405234801561001057600080fd5b50604051610c75380380610c758339818101604052602081101561003357600080fd5b810190808051906020019092919050505080600460006101000a81548173ffffffffffffffffffffffffffffffffffffffff021916908373ffffffffffffffffffffffffffffffffffffffff16021790555050610be0806100956000396000f3fe6080604052600436106100915760003560e01c8063653721471161005957806365372147146101835780637dc0d1d0146101cb5780637e0ecc001461020c5780639c94e20f1461025e5780639d5a37391461029b57610091565b806321599588146100965780632b539c86146100c357806343046844146100da5780634bbf514c1461010b5780634ec942b714610138575b600080fd5b3480156100a257600080fd5b506100ab61030d565b60405180821515815260200191505060405180910390f35b3480156100cf57600080fd5b506100d8610320565b005b610109600480360360208110156100f057600080fd5b81019080803560ff169060200190929190505050610644565b005b34801561011757600080fd5b50610120610802565b60405180821515815260200191505060405180910390f35b34801561014457600080fd5b506101816004803603604081101561015b57600080fd5b81019080803560ff169060200190929190803560ff169060200190929190505050610813565b005b34801561018f57600080fd5b506101986109aa565b604051808360018111156101a857fe5b81526020018260018111156101b957fe5b81526020019250505060405180910390f35b3480156101d757600080fd5b506101e06109d6565b604051808273ffffffffffffffffffffffffffffffffffffffff16815260200191505060405180910390f35b34801561021857600080fd5b506102486004803603602081101561022f57600080fd5b81019080803560ff1690602001909291905050506109fc565b6040518082815260200191505060405180910390f35b34801561026a57600080fd5b506102996004803603602081101561028157600080fd5b81019080803515159060200190929190505050610a14565b005b3480156102a757600080fd5b506102f7600480360360408110156102be57600080fd5b81019080803573ffffffffffffffffffffffffffffffffffffffff169060200190929190803560ff169060200190929190505050610b5f565b6040518082815260200191505060405180910390f35b600160009054906101000a900460ff1681565b6000600360003373ffffffffffffffffffffffffffffffffffffffff1673ffffffffffffffffffffffffffffffffffffffff16815260200190815260200160002060008060000160009054906101000a900460ff16600181111561038057fe5b600181111561038b57fe5b815260200190815260200160002054905060008111610412576040517f08c379a000000000000000000000000000000000000000000000000000000000815260040180806020018281038252601d8152602001807f596f7520646f206e6f74206861766520612077696e6e696e672062657400000081525060200191505060405180910390fd5b60011515600160009054906101000a900460ff1615151461049b576040517f08c379a00000000000000000000000000000000000000000000000000000000081526004018080602001828103825260158152602001807f546865206d61746368206973206e6f74206f766572000000000000000000000081525060200191505060405180910390fd5b6000600260008060000160009054906101000a900460ff1660018111156104be57fe5b60018111156104c957fe5b81526020019081526020016000205482600260008060000160019054906101000a900460ff1660018111156104fa57fe5b600181111561050557fe5b815260200190815260200160002054028161051c57fe5b04820190506000600360003373ffffffffffffffffffffffffffffffffffffffff1673ffffffffffffffffffffffffffffffffffffffff168152602001908152602001600020600080600181111561057057fe5b600181111561057b57fe5b8152602001908152602001600020819055506000600360003373ffffffffffffffffffffffffffffffffffffffff1673ffffffffffffffffffffffffffffffffffffffff16815260200190815260200160002060006001808111156105dc57fe5b60018111156105e757fe5b8152602001908152602001600020819055503373ffffffffffffffffffffffffffffffffffffffff166108fc829081150290604051600060405180830381858888f1935050505015801561063f573d6000803e3d6000fd5b505050565b60001515600160009054906101000a900460ff161515146106cd576040517f08c379a00000000000000000000000000000000000000000000000000000000081526004018080602001828103825260118152602001807f546865206d61746368206973206f76657200000000000000000000000000000081525060200191505060405180910390fd5b6000151560018054906101000a900460ff16151514610754576040517f08c379a00000000000000000000000000000000000000000000000000000000081526004018080602001828103825260148152602001807f42657474696e672069732073757370656e64656400000000000000000000000081525060200191505060405180910390fd5b346002600083600181111561076557fe5b600181111561077057fe5b81526020019081526020016000206000828254019250508190555034600360003373ffffffffffffffffffffffffffffffffffffffff1673ffffffffffffffffffffffffffffffffffffffff16815260200190815260200160002060008360018111156107d957fe5b60018111156107e457fe5b81526020019081526020016000206000828254019250508190555050565b60018054906101000a900460ff1681565b3373ffffffffffffffffffffffffffffffffffffffff16600460009054906101000a900473ffffffffffffffffffffffffffffffffffffffff1673ffffffffffffffffffffffffffffffffffffffff16146108b9576040517f08c379a0000000000000000000000000000000000000000000000000000000008152600401808060200182810382526026815260200180610b856026913960400191505060405180910390fd5b60001515600160009054906101000a900460ff16151514610942576040517f08c379a00000000000000000000000000000000000000000000000000000000081526004018080602001828103825260198152602001807f546865206d6174636820697320616c7265616479206f7665720000000000000081525060200191505060405180910390fd5b816000800160006101000a81548160ff0219169083600181111561096257fe5b0217905550806000800160016101000a81548160ff0219169083600181111561098757fe5b021790555060018060006101000a81548160ff0219169083151502179055505050565b60008060000160009054906101000a900460ff16908060000160019054906101000a900460ff16905082565b600460009054906101000a900473ffffffffffffffffffffffffffffffffffffffff1681565b60026020528060005260406000206000915090505481565b3373ffffffffffffffffffffffffffffffffffffffff16600460009054906101000a900473ffffffffffffffffffffffffffffffffffffffff1673ffffffffffffffffffffffffffffffffffffffff1614610aba576040517f08c379a0000000000000000000000000000000000000000000000000000000008152600401808060200182810382526026815260200180610b856026913960400191505060405180910390fd5b60001515600160009054906101000a900460ff16151514610b43576040517f08c379a00000000000000000000000000000000000000000000000000000000081526004018080602001828103825260198152602001807f546865206d6174636820697320616c7265616479206f7665720000000000000081525060200191505060405180910390fd5b806001806101000a81548160ff02191690831515021790555050565b600360205281600052604060002060205280600052604060002060009150915050548156fe4f6e6c7920746865206f7261636c65206d61792063616c6c20746869732066756e6374696f6ea264697066735822122042c321b2adf43185041c8afead10705ed3581bc8b4961ea93efeb7dccf1230c764736f6c634300060c0033",
  "immutableReferences": {},
  "source": "pragma solidity ^0.6.12;\n\ncontract PredictionMarket2 {\n    enum Side { England, Denmark }\n    struct Result {\n        Side winner;\n        Side loser;\n    }\n    Result public result;\n    bool public matchFinished;\n    bool public betsPaused;\n\n    mapping(Side => uint) public bets;\n    mapping(address => mapping(Side => uint)) public betsPerGambler;\n    address public oracle;\n\n    constructor(address _oracle) public {\n        oracle = _oracle;\n    }\n\n    function placeBet(Side _side) external payable {\n        require(matchFinished == false, 'The match is over');\n        require(betsPaused == false, 'Betting is suspended');\n        bets[_side] += msg.value;\n        betsPerGambler[msg.sender][_side] += msg.value;\n    }\n\n    function withdrawGain() external {\n        uint gamblerBet = betsPerGambler[msg.sender][result.winner];\n        require(gamblerBet > 0, 'You do not have a winning bet');\n        require(matchFinished == true, 'The match is not over');\n        uint gain = gamblerBet + bets[result.loser] * gamblerBet / bets[result.winner];\n        betsPerGambler[msg.sender][Side.England] = 0;\n        betsPerGambler[msg.sender][Side.Denmark] = 0;\n        msg.sender.transfer(gain);\n    }\n\n    function pauseBets(bool _pause) external {\n        require(oracle == msg.sender, 'Only the oracle may call this function');\n        require(matchFinished == false, 'The match is already over');\n        betsPaused = _pause;\n    }\n\n    function reportResult(Side _winner, Side _loser) external {\n        require(oracle == msg.sender, 'Only the oracle may call this function');\n        require(matchFinished == false, 'The match is already over');\n        result.winner = _winner;\n        result.loser = _loser;\n        matchFinished = true;\n    }\n}",
  "sourcePath": "/home/ryan/dev/elavate/playground/bet/contracts/PredictionMarket2.sol",
  "compiler": {
    "name": "solc",
    "version": "0.6.12+commit.27d51765.Emscripten.clang"
  },
  "schemaVersion": "3.4.1",
  "updatedAt": "2021-07-03T21:27:04.984Z",
  "networkType": "ethereum",
  "devdoc": {
    "kind": "dev",
    "methods": {},
    "version": 1
  },
  "userdoc": {
    "kind": "user",
    "methods": {},
    "version": 1
  }
}