{
  "contractName": "PredictionMarket",
  "abi": [
    {
      "inputs": [
        {
          "internalType": "address",
          "name": "_oracle",
          "type": "address"
        }
      ],
      "stateMutability": "nonpayable",
      "type": "constructor"
    },
    {
      "inputs": [
        {
          "internalType": "enum PredictionMarket.Side",
          "name": "",
          "type": "uint8"
        }
      ],
      "name": "bets",
      "outputs": [
        {
          "internalType": "uint256",
          "name": "",
          "type": "uint256"
        }
      ],
      "stateMutability": "view",
      "type": "function",
      "constant": true
    },
    {
      "inputs": [
        {
          "internalType": "address",
          "name": "",
          "type": "address"
        },
        {
          "internalType": "enum PredictionMarket.Side",
          "name": "",
          "type": "uint8"
        }
      ],
      "name": "betsPerGambler",
      "outputs": [
        {
          "internalType": "uint256",
          "name": "",
          "type": "uint256"
        }
      ],
      "stateMutability": "view",
      "type": "function",
      "constant": true
    },
    {
      "inputs": [],
      "name": "matchFinished",
      "outputs": [
        {
          "internalType": "bool",
          "name": "",
          "type": "bool"
        }
      ],
      "stateMutability": "view",
      "type": "function",
      "constant": true
    },
    {
      "inputs": [],
      "name": "oracle",
      "outputs": [
        {
          "internalType": "address",
          "name": "",
          "type": "address"
        }
      ],
      "stateMutability": "view",
      "type": "function",
      "constant": true
    },
    {
      "inputs": [],
      "name": "result",
      "outputs": [
        {
          "internalType": "enum PredictionMarket.Side",
          "name": "winner",
          "type": "uint8"
        },
        {
          "internalType": "enum PredictionMarket.Side",
          "name": "loser",
          "type": "uint8"
        }
      ],
      "stateMutability": "view",
      "type": "function",
      "constant": true
    },
    {
      "inputs": [
        {
          "internalType": "enum PredictionMarket.Side",
          "name": "_side",
          "type": "uint8"
        }
      ],
      "name": "placeBet",
      "outputs": [],
      "stateMutability": "payable",
      "type": "function",
      "payable": true
    },
    {
      "inputs": [],
      "name": "withdrawGain",
      "outputs": [],
      "stateMutability": "nonpayable",
      "type": "function"
    },
    {
      "inputs": [
        {
          "internalType": "enum PredictionMarket.Side",
          "name": "_winner",
          "type": "uint8"
        },
        {
          "internalType": "enum PredictionMarket.Side",
          "name": "_loser",
          "type": "uint8"
        }
      ],
      "name": "reportResult",
      "outputs": [],
      "stateMutability": "nonpayable",
      "type": "function"
    }
  ],
  "bytecode": "0x608060405234801561001057600080fd5b50604051610a12380380610a128339818101604052602081101561003357600080fd5b810190808051906020019092919050505080600460006101000a81548173ffffffffffffffffffffffffffffffffffffffff021916908373ffffffffffffffffffffffffffffffffffffffff1602179055505061097d806100956000396000f3fe60806040526004361061007b5760003560e01c8063653721471161004e57806365372147146101405780637dc0d1d0146101885780637e0ecc00146101c95780639d5a37391461021b5761007b565b806321599588146100805780632b539c86146100ad57806343046844146100c45780634ec942b7146100f5575b600080fd5b34801561008c57600080fd5b5061009561028d565b60405180821515815260200191505060405180910390f35b3480156100b957600080fd5b506100c26102a0565b005b6100f3600480360360208110156100da57600080fd5b81019080803560ff1690602001909291905050506105c4565b005b34801561010157600080fd5b5061013e6004803603604081101561011857600080fd5b81019080803560ff169060200190929190803560ff1690602001909291905050506106fb565b005b34801561014c57600080fd5b50610155610892565b6040518083600181111561016557fe5b815260200182600181111561017657fe5b81526020019250505060405180910390f35b34801561019457600080fd5b5061019d6108be565b604051808273ffffffffffffffffffffffffffffffffffffffff16815260200191505060405180910390f35b3480156101d557600080fd5b50610205600480360360208110156101ec57600080fd5b81019080803560ff1690602001909291905050506108e4565b6040518082815260200191505060405180910390f35b34801561022757600080fd5b506102776004803603604081101561023e57600080fd5b81019080803573ffffffffffffffffffffffffffffffffffffffff169060200190929190803560ff1690602001909291905050506108fc565b6040518082815260200191505060405180910390f35b600160009054906101000a900460ff1681565b6000600360003373ffffffffffffffffffffffffffffffffffffffff1673ffffffffffffffffffffffffffffffffffffffff16815260200190815260200160002060008060000160009054906101000a900460ff16600181111561030057fe5b600181111561030b57fe5b815260200190815260200160002054905060008111610392576040517f08c379a000000000000000000000000000000000000000000000000000000000815260040180806020018281038252601d8152602001807f596f7520646f206e6f74206861766520612077696e6e696e672062657400000081525060200191505060405180910390fd5b60011515600160009054906101000a900460ff1615151461041b576040517f08c379a00000000000000000000000000000000000000000000000000000000081526004018080602001828103825260158152602001807f546865206d61746368206973206e6f74206f766572000000000000000000000081525060200191505060405180910390fd5b6000600260008060000160009054906101000a900460ff16600181111561043e57fe5b600181111561044957fe5b81526020019081526020016000205482600260008060000160019054906101000a900460ff16600181111561047a57fe5b600181111561048557fe5b815260200190815260200160002054028161049c57fe5b04820190506000600360003373ffffffffffffffffffffffffffffffffffffffff1673ffffffffffffffffffffffffffffffffffffffff16815260200190815260200160002060008060018111156104f057fe5b60018111156104fb57fe5b8152602001908152602001600020819055506000600360003373ffffffffffffffffffffffffffffffffffffffff1673ffffffffffffffffffffffffffffffffffffffff168152602001908152602001600020600060018081111561055c57fe5b600181111561056757fe5b8152602001908152602001600020819055503373ffffffffffffffffffffffffffffffffffffffff166108fc829081150290604051600060405180830381858888f193505050501580156105bf573d6000803e3d6000fd5b505050565b60001515600160009054906101000a900460ff1615151461064d576040517f08c379a00000000000000000000000000000000000000000000000000000000081526004018080602001828103825260118152602001807f546865206d61746368206973206f76657200000000000000000000000000000081525060200191505060405180910390fd5b346002600083600181111561065e57fe5b600181111561066957fe5b81526020019081526020016000206000828254019250508190555034600360003373ffffffffffffffffffffffffffffffffffffffff1673ffffffffffffffffffffffffffffffffffffffff16815260200190815260200160002060008360018111156106d257fe5b60018111156106dd57fe5b81526020019081526020016000206000828254019250508190555050565b3373ffffffffffffffffffffffffffffffffffffffff16600460009054906101000a900473ffffffffffffffffffffffffffffffffffffffff1673ffffffffffffffffffffffffffffffffffffffff16146107a1576040517f08c379a00000000000000000000000000000000000000000000000000000000081526004018080602001828103825260268152602001806109226026913960400191505060405180910390fd5b60001515600160009054906101000a900460ff1615151461082a576040517f08c379a00000000000000000000000000000000000000000000000000000000081526004018080602001828103825260198152602001807f546865206d6174636820697320616c7265616479206f7665720000000000000081525060200191505060405180910390fd5b816000800160006101000a81548160ff0219169083600181111561084a57fe5b0217905550806000800160016101000a81548160ff0219169083600181111561086f57fe5b021790555060018060006101000a81548160ff0219169083151502179055505050565b60008060000160009054906101000a900460ff16908060000160019054906101000a900460ff16905082565b600460009054906101000a900473ffffffffffffffffffffffffffffffffffffffff1681565b60026020528060005260406000206000915090505481565b600360205281600052604060002060205280600052604060002060009150915050548156fe4f6e6c7920746865206f7261636c65206d61792063616c6c20746869732066756e6374696f6ea2646970667358221220c8c3b06e4169b9766b329332a5107ca6c395f44154364fe3f99a911d99fa2a9d64736f6c634300060c0033",
  "immutableReferences": {},
  "source": "pragma solidity ^0.6.12;\n\ncontract PredictionMarket {\n    enum Side { Belgium, Italy }\n    struct Result {\n        Side winner;\n        Side loser;\n    }\n    Result public result;\n    bool public matchFinished;\n\n    mapping(Side => uint) public bets;\n    mapping(address => mapping(Side => uint)) public betsPerGambler;\n    address public oracle;\n\n    constructor(address _oracle) public {\n        oracle = _oracle;\n    }\n\n    function placeBet(Side _side) external payable {\n        require(matchFinished == false, 'The match is over');\n        bets[_side] += msg.value;\n        betsPerGambler[msg.sender][_side] += msg.value;\n    }\n\n    function withdrawGain() external {\n        uint gamblerBet = betsPerGambler[msg.sender][result.winner];\n        require(gamblerBet > 0, 'You do not have a winning bet');\n        require(matchFinished == true, 'The match is not over');\n        uint gain = gamblerBet + bets[result.loser] * gamblerBet / bets[result.winner];\n        betsPerGambler[msg.sender][Side.Belgium] = 0;\n        betsPerGambler[msg.sender][Side.Italy] = 0;\n\n        msg.sender.transfer(gain);\n    }\n\n    function reportResult(Side _winner, Side _loser) external {\n        require(oracle == msg.sender, 'Only the oracle may call this function');\n        require(matchFinished == false, 'The match is already over');\n        result.winner = _winner;\n        result.loser = _loser;\n        matchFinished = true;\n    }\n}",
  "sourcePath": "/home/ryan/dev/elavate/prediction/contracts/PredictionMarket.sol",
  "compiler": {
    "name": "solc",
    "version": "0.6.12+commit.27d51765.Emscripten.clang"
  },
  "schemaVersion": "3.4.1",
  "updatedAt": "2021-07-01T04:45:33.575Z",
  "networkType": "ethereum",
  "devdoc": {
    "kind": "dev",
    "methods": {},
    "version": 1
  },
  "userdoc": {
    "kind": "user",
    "methods": {},
    "version": 1
  }
}